:100000000C9434000C9446000C9446000C9446006A
:100010000C9446000C9446000C9446000C94460048
:100020000C9446000C9446000C9446000C94460038
:100030000C9446000C9446000C9446000C94460028
:100040000C94C8000C9446000C9446000C94460096
:100050000C9446000C9446000C9446000C94460008
:100060000C9446000C94460011241FBECFEFD8E03C
:10007000DEBFCDBF21E0A0E0B1E001C01D92AB30FA
:10008000B207E1F70E9483000C9443010C94000036
:1000900084B1866084B982EA809380008AE180938B
:1000A000810080E29EE4909387008093860008950B
:1000B00080E480937C0086E880937A000895E1E6EE
:1000C000F0E080E8808384E0808383E085BD81E088
:1000D00080936E0080910A0186BD0895ECE7F0E000
:1000E0009081907F8F70892B8083EAE7F0E0808198
:1000F0008064808380917A0086FDFCCF80917800B7
:100100009091790008950E9448000E9458000E9432
:100110005F0086E00E946E009093090180930801C1
:1001200087E00E946E00909307018093060185E0AE
:100130000E946E00909305018093040162E071E0DB
:1001400080910801909109010E94DE0060E071E059
:1001500080910601909107010E94DE0080910201CA
:100160009091030190938900809388008091000111
:100170009091010190938B0080938A002FEF89EF7B
:1001800090E0215080409040E1F700C00000C1CFD6
:100190001F920F920FB60F9211248F93F89483E061
:1001A00085BD81E080936E0080910A0186BD7894C0
:1001B0008F910F900FBE0F901F901895CF93DF93E4
:1001C000EB019C01A0E4BCE90E9412012FEF33E097
:1001D00040E050E00E94F30028513C4F39832883CF
:1001E000DF91CF910895052E97FB1EF400940E9495
:1001F0000A0157FD07D00E94210107FC03D04EF4ED
:100200000C940A0150954095309521953F4F4F4FE2
:100210005F4F089590958095709561957F4F8F4FB2
:100220009F4F0895A29FB001B39FC001A39F700D7F
:10023000811D1124911DB29F700D811D1124911DEE
:100240000895A1E21A2EAA1BBB1BFD010DC0AA1F17
:10025000BB1FEE1FFF1FA217B307E407F50720F02F
:10026000A21BB30BE40BF50B661F771F881F991FAA
:100270001A9469F760957095809590959B01AC01F3
:0A028000BD01CF010895F894FFCFEF
:00000001FF
