:100000000C9434000C9446000C9446000C9446006A
:100010000C9446000C9446000C9446000C94460048
:100020000C9446000C9446000C9446000C94460038
:100030000C9446000C9446000C9446000C94460028
:100040000C9401010C9446000C9446000C9446005C
:100050000C9446000C9446000C9446000C94460008
:100060000C9446000C94460011241FBECFEFD8E03C
:10007000DEBFCDBF21E0A0E0B1E001C01D92AC30F9
:10008000B207E1F70E9495000C944C010C9400001B
:1000900084B1866084B982EA809380008AE180938B
:1000A000810080E29EE4909387008093860008950B
:1000B00080E480937C0086E880937A0008958AB17A
:1000C0008FEF8AB98BB18BB9E1E6F0E080E88083ED
:1000D00084E0808385E085BD81E080936E008EE9B9
:1000E00086BD08959091000180910101981720F438
:1000F0008BB184608BB908958BB18B7F8BB90895D8
:10010000ECE7F0E09081907F8F70892B8083EAE7A5
:10011000F0E080818064808380917A0086FDFCCF4E
:10012000809178009091790008950E945F000E946C
:1001300048000E94580086E00E94800090930B01C6
:1001400080930A0187E00E948000909309018093C8
:10015000080185E00E9480008C0190930701809344
:10016000060120910A0130910B01A0EABFE00E9434
:100170003D010F2ECC24CA94F3E0DF2EE12CF12CAC
:10018000F02DA70196010E941B01E901C851DC4F27
:10019000D0930501C0930401209108013091090119
:1001A000A0EABFE00E943D01A70196010E941B0149
:1001B00028513C4F30930301209302019801A2E3A0
:1001C000B0E00E943D01A70196010E941B0120930F
:1001D0000101D0938900C093880080910201909121
:1001E000030190938B0080938A000E9472002FEF8E
:1001F00089EF90E0215080409040E1F700C000007E
:100200009ACF1F920F920FB60F9211248F93F894EA
:10021000809100018F5F809300018F3F11F4109255
:1002200000018091010186BD78948F910F900FBEDF
:100230000F901F901895A1E21A2EAA1BBB1BFD015F
:100240000DC0AA1FBB1FEE1FFF1FA217B307E407B5
:10025000F50720F0A21BB30BE40BF50B661F771F0D
:10026000881F991F1A9469F76095709580959095ED
:100270009B01AC01BD01CF010895A29FB001B39FC6
:10028000C001A39F700D811D1124911DB29F700D9F
:0C029000811D1124911D0895F894FFCFEA
:00000001FF
