S0100000706F73746C6162352E73726563EA
S11300000C9434000C9451000C9451000C94510045
S11300100C9451000C9451000C9451000C94510018
S11300200C9451000C9451000C9451000C94510008
S11300300C9451000C9451000C9451000C945100F8
S11300400C94FB000C9451000C9451000C9451003E
S11300500C9451000C9451000C9451000C945100D8
S11300600C9451000C94510011241FBECFEFD8E022
S1130070DEBFCDBF11E0A0E0B1E0EEEAF2E002C0E5
S113008005900D92A230B107D9F721E0A2E0B1E0CA
S113009001C01D92AE30B207E1F70E9493000C94A8
S11300A055010C94000084B1866084B982EA80937F
S11300B080008AE18093810080E29EE4909387002F
S11300C080938600089580E480937C0086E8809382
S11300D07A0008958AB18FEF8AB98BB18BB9E1E6C2
S11300E0F0E080E8808384E0808383E085BD81E064
S11300F080936E008091000186BD0895ECE7F0E0E6
S11301009081907F8F70892B8083EAE7F0E0808173
S11301108064808380917A0086FDFCCF8091780092
S11301209091790008950E946A000E9453000E94F1
S11301306300789486E00E947E0090930D01809382
S11301400C0187E00E947E008C0190930B01809348
S11301500A0120910C0130910D01A0EABFE00E9438
S113016046010F2ECC24CA94F3E0DF2EE12CF12CAF
S1130170F02DA70196010E942401E901C851DC4F2A
S1130180D0930701C09306019801A0EABFE00E9442
S11301904601A70196010E94240128513C4F309347
S11301A0050120930401D0938900C09388008091B5
S11301B004019091050190938B0080938A0085E05F
S11301C00E947E0090930901809308019C01AEEF88
S11301D0B0E00E944601A70196010E9424012093E9
S11301E003012FEF89EF90E0215080409040E1F728
S11301F000C000009ECF1F920F920FB60F921124E1
S11302008F939F93F894809102018F5F80930201F2
S11302108F3F11F410920201909102018091030129
S1130220981720F48BB184608BB903C08BB18B7F9A
S11302308BB98091000186BD78949F918F910F9026
S11302400FBE0F901F901895A1E21A2EAA1BBB1B7C
S1130250FD010DC0AA1FBB1FEE1FFF1FA217B3078E
S1130260E407F50720F0A21BB30BE40BF50B661FA4
S1130270771F881F991F1A9469F760957095809568
S113028090959B01AC01BD01CF010895A29FB001DF
S1130290B39FC001A39F700D811D1124911DB29FB6
S11102A0700D811D1124911D0895F894FFCF57
S10502AEFE004C
S9030000FC
